{
  "contractName": "Meme",
  "abi": [
    {
      "constant": true,
      "inputs": [],
      "name": "userCount",
      "outputs": [
        {
          "name": "",
          "type": "uint256"
        }
      ],
      "payable": false,
      "stateMutability": "view",
      "type": "function"
    },
    {
      "constant": true,
      "inputs": [
        {
          "name": "",
          "type": "address"
        }
      ],
      "name": "checkFunction",
      "outputs": [
        {
          "name": "",
          "type": "bool"
        }
      ],
      "payable": false,
      "stateMutability": "view",
      "type": "function"
    },
    {
      "constant": true,
      "inputs": [
        {
          "name": "",
          "type": "uint256"
        }
      ],
      "name": "groupInformation",
      "outputs": [
        {
          "name": "groupId",
          "type": "uint256"
        },
        {
          "name": "groupEmailId",
          "type": "string"
        },
        {
          "name": "groupHash",
          "type": "string"
        },
        {
          "name": "groupVersion",
          "type": "uint256"
        }
      ],
      "payable": false,
      "stateMutability": "view",
      "type": "function"
    },
    {
      "constant": true,
      "inputs": [],
      "name": "groupCount",
      "outputs": [
        {
          "name": "",
          "type": "uint256"
        }
      ],
      "payable": false,
      "stateMutability": "view",
      "type": "function"
    },
    {
      "constant": true,
      "inputs": [
        {
          "name": "",
          "type": "uint256"
        }
      ],
      "name": "userInformation",
      "outputs": [
        {
          "name": "userId",
          "type": "uint256"
        },
        {
          "name": "userEmailId",
          "type": "string"
        },
        {
          "name": "userHash",
          "type": "string"
        },
        {
          "name": "publickey",
          "type": "string"
        }
      ],
      "payable": false,
      "stateMutability": "view",
      "type": "function"
    },
    {
      "constant": false,
      "inputs": [
        {
          "name": "_userEmailId",
          "type": "string"
        },
        {
          "name": "_userHash",
          "type": "string"
        },
        {
          "name": "_publicKey",
          "type": "string"
        }
      ],
      "name": "addUser",
      "outputs": [],
      "payable": false,
      "stateMutability": "nonpayable",
      "type": "function"
    },
    {
      "constant": false,
      "inputs": [
        {
          "name": "_userId",
          "type": "uint256"
        },
        {
          "name": "_newHash",
          "type": "string"
        }
      ],
      "name": "changeUserInformation",
      "outputs": [],
      "payable": false,
      "stateMutability": "nonpayable",
      "type": "function"
    },
    {
      "constant": false,
      "inputs": [
        {
          "name": "_groupEmailId",
          "type": "string"
        },
        {
          "name": "_groupHash",
          "type": "string"
        },
        {
          "name": "_publicKey",
          "type": "string"
        },
        {
          "name": "_versionId",
          "type": "uint256"
        }
      ],
      "name": "createGroup",
      "outputs": [],
      "payable": false,
      "stateMutability": "nonpayable",
      "type": "function"
    },
    {
      "constant": true,
      "inputs": [],
      "name": "getuserCount",
      "outputs": [
        {
          "name": "",
          "type": "uint256"
        }
      ],
      "payable": false,
      "stateMutability": "view",
      "type": "function"
    }
  ],
  "bytecode": "0x60806040526000600455600060055534801561001a57600080fd5b50610fd38061002a6000396000f3fe608060405234801561001057600080fd5b50600436106100935760003560e01c80638f23b326116100665780638f23b3261461025157806395c5fed41461026f578063aa4bd40b14610458578063d22a02c51461051d578063eab171a0146106a357610093565b806307973ccf1461009857806350898bb0146100b65780637e1d61371461011257806389e555dc14610233575b600080fd5b6100a0610896565b6040518082815260200191505060405180910390f35b6100f8600480360360208110156100cc57600080fd5b81019080803573ffffffffffffffffffffffffffffffffffffffff16906020019092919050505061089c565b604051808215151515815260200191505060405180910390f35b61013e6004803603602081101561012857600080fd5b81019080803590602001909291905050506108bc565b604051808581526020018060200180602001848152602001838103835286818151815260200191508051906020019080838360005b8381101561018e578082015181840152602081019050610173565b50505050905090810190601f1680156101bb5780820380516001836020036101000a031916815260200191505b50838103825285818151815260200191508051906020019080838360005b838110156101f45780820151818401526020810190506101d9565b50505050905090810190601f1680156102215780820380516001836020036101000a031916815260200191505b50965050505050505060405180910390f35b61023b610a1c565b6040518082815260200191505060405180910390f35b610259610a26565b6040518082815260200191505060405180910390f35b6104566004803603606081101561028557600080fd5b81019080803590602001906401000000008111156102a257600080fd5b8201836020820111156102b457600080fd5b803590602001918460018302840111640100000000831117156102d657600080fd5b91908080601f016020809104026020016040519081016040528093929190818152602001838380828437600081840152601f19601f8201169050808301925050505050505091929192908035906020019064010000000081111561033957600080fd5b82018360208201111561034b57600080fd5b8035906020019184600183028401116401000000008311171561036d57600080fd5b91908080601f016020809104026020016040519081016040528093929190818152602001838380828437600081840152601f19601f820116905080830192505050505050509192919290803590602001906401000000008111156103d057600080fd5b8201836020820111156103e257600080fd5b8035906020019184600183028401116401000000008311171561040457600080fd5b91908080601f016020809104026020016040519081016040528093929190818152602001838380828437600081840152601f19601f820116905080830192505050505050509192919290505050610a2c565b005b61051b6004803603604081101561046e57600080fd5b81019080803590602001909291908035906020019064010000000081111561049557600080fd5b8201836020820111156104a757600080fd5b803590602001918460018302840111640100000000831117156104c957600080fd5b91908080601f016020809104026020016040519081016040528093929190818152602001838380828437600081840152601f19601f820116905080830192505050505050509192919290505050610adf565b005b6105496004803603602081101561053357600080fd5b8101908080359060200190929190505050610be9565b60405180858152602001806020018060200180602001848103845287818151815260200191508051906020019080838360005b8381101561059757808201518184015260208101905061057c565b50505050905090810190601f1680156105c45780820380516001836020036101000a031916815260200191505b50848103835286818151815260200191508051906020019080838360005b838110156105fd5780820151818401526020810190506105e2565b50505050905090810190601f16801561062a5780820380516001836020036101000a031916815260200191505b50848103825285818151815260200191508051906020019080838360005b83811015610663578082015181840152602081019050610648565b50505050905090810190601f1680156106905780820380516001836020036101000a031916815260200191505b5097505050505050505060405180910390f35b610894600480360360808110156106b957600080fd5b81019080803590602001906401000000008111156106d657600080fd5b8201836020820111156106e857600080fd5b8035906020019184600183028401116401000000008311171561070a57600080fd5b91908080601f016020809104026020016040519081016040528093929190818152602001838380828437600081840152601f19601f8201169050808301925050505050505091929192908035906020019064010000000081111561076d57600080fd5b82018360208201111561077f57600080fd5b803590602001918460018302840111640100000000831117156107a157600080fd5b91908080601f016020809104026020016040519081016040528093929190818152602001838380828437600081840152601f19601f8201169050808301925050505050505091929192908035906020019064010000000081111561080457600080fd5b82018360208201111561081657600080fd5b8035906020019184600183028401116401000000008311171561083857600080fd5b91908080601f016020809104026020016040519081016040528093929190818152602001838380828437600081840152601f19601f82011690508083019250505050505050919291929080359060200190929190505050610de1565b005b60045481565b60016020528060005260406000206000915054906101000a900460ff1681565b6003602052806000526040600020600091509050806000015490806001018054600181600116156101000203166002900480601f01602080910402602001604051908101604052809291908181526020018280546001816001161561010002031660029004801561096e5780601f106109435761010080835404028352916020019161096e565b820191906000526020600020905b81548152906001019060200180831161095157829003601f168201915b505050505090806002018054600181600116156101000203166002900480601f016020809104026020016040519081016040528092919081815260200182805460018160011615610100020316600290048015610a0c5780601f106109e157610100808354040283529160200191610a0c565b820191906000526020600020905b8154815290600101906020018083116109ef57829003601f168201915b5050505050908060030154905084565b6000600454905090565b60055481565b6004600081548092919060010191905055506040518060800160405280600454815260200184815260200183815260200182815250600260006004548152602001908152602001600020600082015181600001556020820151816001019080519060200190610a9c929190610e82565b506040820151816002019080519060200190610ab9929190610e82565b506060820151816003019080519060200190610ad6929190610e82565b50905050505050565b600082905060608290506004548211158015610afb5750600082115b15610be3576060600260008681526020019081526020016000206002018054600181600116156101000203166002900480601f016020809104026020016040519081016040528092919081815260200182805460018160011615610100020316600290048015610bac5780601f10610b8157610100808354040283529160200191610bac565b820191906000526020600020905b815481529060010190602001808311610b8f57829003601f168201915b5050505050905081905080600260008781526020019081526020016000206002019080519060200190610be0929190610f02565b50505b50505050565b6002602052806000526040600020600091509050806000015490806001018054600181600116156101000203166002900480601f016020809104026020016040519081016040528092919081815260200182805460018160011615610100020316600290048015610c9b5780601f10610c7057610100808354040283529160200191610c9b565b820191906000526020600020905b815481529060010190602001808311610c7e57829003601f168201915b505050505090806002018054600181600116156101000203166002900480601f016020809104026020016040519081016040528092919081815260200182805460018160011615610100020316600290048015610d395780601f10610d0e57610100808354040283529160200191610d39565b820191906000526020600020905b815481529060010190602001808311610d1c57829003601f168201915b505050505090806003018054600181600116156101000203166002900480601f016020809104026020016040519081016040528092919081815260200182805460018160011615610100020316600290048015610dd75780601f10610dac57610100808354040283529160200191610dd7565b820191906000526020600020905b815481529060010190602001808311610dba57829003601f168201915b5050505050905084565b6005600081548092919060010191905055506040518060800160405280600554815260200185815260200184815260200182815250600360006005548152602001908152602001600020600082015181600001556020820151816001019080519060200190610e51929190610e82565b506040820151816002019080519060200190610e6e929190610e82565b506060820151816003015590505050505050565b828054600181600116156101000203166002900490600052602060002090601f016020900481019282601f10610ec357805160ff1916838001178555610ef1565b82800160010185558215610ef1579182015b82811115610ef0578251825591602001919060010190610ed5565b5b509050610efe9190610f82565b5090565b828054600181600116156101000203166002900490600052602060002090601f016020900481019282601f10610f4357805160ff1916838001178555610f71565b82800160010185558215610f71579182015b82811115610f70578251825591602001919060010190610f55565b5b509050610f7e9190610f82565b5090565b610fa491905b80821115610fa0576000816000905550600101610f88565b5090565b9056fea165627a7a7230582000af38a8e5535fb9cb6c5e6adcd5ec0facd211be1c00cd03d92413915678f7b20029",
  "source": "pragma solidity 0.5.8;\n\ncontract Meme{\n    //Smarty Contract code goes here\n    string memeHash;\n\n    mapping(address=>bool) public checkFunction;\n\n  struct userHash{\n        uint userId;\n        string userEmailId;\n        string userHash;\n        string publickey;\n    }\n\n    struct groupHash{\n        uint groupId;\n        string groupEmailId;\n        string groupHash;\n        uint groupVersion;\n    }\n\n    //Write function\n  \n       mapping(uint=>userHash) public userInformation;\n       mapping(uint=>groupHash) public groupInformation;\n\n    function addUser(string memory _userEmailId,string memory _userHash,string memory _publicKey) public {\n        userCount++;\n         userInformation[userCount]= userHash(userCount,_userEmailId,_userHash, _publicKey);\n          \n     }\n\n    uint public userCount=0;\n\n    function changeUserInformation(uint  _userId,string memory _newHash) public {\n        uint checkId = _userId;\n        string memory newHash=_newHash;\n       // require((checkId<= userCount) && (checkId>0), “message to be displayed”);\n        if((checkId<= userCount) && (checkId>0)){\n            string memory k= userInformation[_userId].userHash;\n            k=newHash;\n            userInformation[_userId].userHash=k;\n        }\n    }\n\n    uint public groupCount=0;\n    function createGroup(string memory _groupEmailId,string memory _groupHash,string memory _publicKey, uint  _versionId)  public {\n\n        groupCount++;\n        groupInformation[groupCount]=groupHash(groupCount,_groupEmailId,_groupHash,_versionId);\n    }\n\n       function getuserCount() public view returns(uint)\n    {\n        return userCount;\n    }\n}",
  "sourcePath": "/Users/rutvikpatel/Desktop/Project/BlockChainApp/BlockChainWithIPFS/starter_kit/src/contracts/Meme.sol",
  "compiler": {
    "name": "solc",
    "version": "0.5.8+commit.23d335f2.Emscripten.clang"
  },
  "schemaVersion": "3.0.14",
  "updatedAt": "2020-05-06T06:49:28.762Z",
  "devdoc": {
    "methods": {}
  },
  "userdoc": {
    "methods": {}
  }
}